:020000040000FA
:100000006F29A20021008E1120000930A3000310E7
:100010001020A20CA30B08280314102003146C2931
:1000200020000318172800008E1120004C288E1580
:1000300020004C282C08A0002D08A100A201A3013B
:1000400021008E16640020008E1E36282000030139
:100050000310A23BA33B03182228A03BA13B031C97
:100060000800A630A2000030A300222820000030A3
:10007000A1001830F1200830A3004C20200003100C
:100080008E1A03142000A20C00004628A30B3D2862
:100090004C20031422086C290030A1006130F128A3
:1000A00004086400111E512823009A0003146C29CF
:1000B000B31329080319B3170530A8002730A3008C
:1000C00010306E200330A300E8306E20A3016430AE
:1000D0006E20A3010A306E2024087528A20025088E
:1000E000A1002408A0003B212008A000A8030319B8
:1000F000B313290803197F282802031808002008D1
:10010000031DB313B31B0800303E67290830A60057
:10011000A700390885003708840035083319DA202C
:10012000331DDC20841338088700360880388600A9
:10013000340881048613A001A101260803196C2943
:10014000B318D42001083405FF3EA00DA10DB31C47
:10015000D420A60BA02827083318042920086C29CE
:100160000830A6003908850037088400350833199F
:10017000DA20331DDC2084133808870036088038E5
:10018000860034098105260803196C2933180421D7
:100190008613A10CA00C01083404031C3406810052
:1001A000D420A60BC9286C29350880060000D82861
:1001B000800608008004DF28FF3A8005E028FF3A27
:1001C000841780056C29A301A200FF30A207031C3D
:1001D000A307031C6C290330A100E330F120E528BC
:1001E000A101F43EA000A109FE30031CFA28A007DB
:1001F0000318F728A0076400A10FF72800002018B3
:100200000129201803290800A201A3010B29A10C30
:10021000A00CA20DA30DFF3E031807292308A1007F
:100220002208A0006C29A136A00CFF3E0318132958
:1002300020086C29A20002302029A20003302029C6
:10024000A80023082102031D2729220820020430C8
:1002500003180130031902302805031DFF306C29F3
:100260000404031DFF306C290038031DFF3084088F
:10027000031DFF3A6C29A501A4011030A600210D31
:10028000A40DA50D2208A4022308A53B03184D299F
:100290002208A4072308A53D0310A00DA10DA60B5D
:1002A0003F2920086C291030A800A101A001A70C4B
:1002B000A60C031C5F292208A0072308A13DA10C5E
:1002C000A00CA50CA40CA80B572924086C298400A9
:1002D00031088A00300882002000640008002300F2
:1002E0000C309B0020309E0090309D00210070302B
:1002F000990023008C018E0120008C1621008C12A5
:1003000020000130A300F4308031E4208C12210061
:100310008C122000D030AC000730AD0080311A20A4
:100320008331031C3D2BF8008C1221008C1220001D
:100330000C1221000C1220007808103C031DFF3025
:10034000FF3AF2007808203C031DFF30FF3AF4002A
:1003500072088400740881313021F400F5007808B7
:10036000303C031DFF30FF3AF6007408750484002A
:10037000760881313021F600F700640076087704B2
:1003800081310319C929780880310120833149233B
:10039000C13364007808013C8131031DD029BA3390
:1003A00064007808023C8231031D2F2A0C152100BD
:1003B0000C110E302000B6000030B8000430B4003C
:1003C0000E30B7000030B9000130B5000530B30081
:1003D0007808A000A1018031B020FB016400073043
:1003E0007B0282310318122A0E30B6000030B800AA
:1003F0000230B4000E30B7000030B9000130B50053
:100400000630B30080318620F2002108F3007B081B
:10041000653E840000308501853D72088000FB0A3E
:10042000031DDC330C1121000C112000FB016400C2
:1004300007307B02823103182B2A7B08653E84003B
:1004400000308501853D0008F2007208803151209E
:10045000FB0A031DEC337808803101205B33640014
:100460007808033C8231031D5A2A563080315120CE
:1004700065308031512072308031512073308031AD
:1004800051206930803151206F30803151206E30E1
:100490008031512020308031512030308031512046
:1004A00033308031512005308031E32078088031AD
:1004B0000120303364007808043C8231031D632A34
:1004C0008331B623273364007808073C8231031D4B
:1004D000832A8C1221008C1220000C1621000C1291
:1004E000FA3020008031E320780880310120FA3092
:1004F0008031E3200C1221000C1220008C16210008
:100500008C122000073364007808083C8331031DF7
:10051000272B0C1521000C110E302000B6000030E6
:10052000B8000430B4000E30B7000030B90001301C
:10053000B5000530B3007808A000A1018031B020DB
:10054000FB01640013307B0282310318C52A0E3090
:10055000B6000030B8000230B4000E30B7000030F2
:10056000B9000130B5000630B30080318620F200BA
:100570002108F3007B086C3E840000308501853D36
:1005800072088000FB0A031DDC330C1121000C11E2
:1005900020006C08F9000130FB00640013307B027E
:1005A00082310318E62A85317A257B086C3E840067
:1005B00000308501853D0008F200720884007A0849
:1005C00081313421F900FB0A031DE7336400790807
:1005D000003C8331031D0B2B0C1221000C12200058
:1005E0008C1621008C122000FB01640007307B0276
:1005F00083310318092B7B086C3E84000030850191
:10060000853D0008F200720880315120FB0A031D6D
:10061000EC338331222B0C1621000C1220008C129B
:1006200021008C1245302000803151207230803101
:1006300051207230803151206F3080315120723022
:100640008031512078088031012081318A2964006D
:100650007808C83C8331031D3D2B1030F800780822
:10066000803101208331492305308031E32004307B
:10067000F8008331B62381318A298C1221008C1233
:1006800020000C1221000C12200081318A29640004
:10069000FE330C1521000C110E302000B600003086
:1006A000B8000430B4000E30B7000030B90001309B
:1006B000B5000530B3000130A000A1018031B020A9
:1006C0000E30B6000030B8000430B4000E30B70071
:1006D0000030B9000130B5000530B3006230A00031
:1006E000A1018031B0200130FB00640006307B02A4
:1006F00083310318902B0E30B6000030B800043060
:10070000B4000E30B7000030B9000130B50005303C
:10071000B300A001A1018031B020FB0A031DE53325
:100720000C1121000C11013020008031E3200C1548
:1007300021000C110E302000B6000030B80004304B
:10074000B4000E30B7000030B9000130B5000530FC
:10075000B3007808A000A1018031B0200F308031B3
:10076000E3200C1121000C11200008000C152100C1
:100770000C110E302000B6000030B8000430B40078
:100780000E30B7000030B9000130B5000530B300BD
:100790007808A000A1018031B020FB016400133073
:1007A0007B0283310318F22B0E30B6000030B80004
:1007B0000230B4000E30B7000030B9000130B5008F
:1007C0000630B30080318620F2002108F3007B0858
:1007D000523E840000308501853D72088000FB0A8E
:1007E000031DDC330C1121000C112000FB01FC0166
:1007F000640015307C0284310318582C7B08523E6B
:10080000840000308501853D0008F2007C083A3EF6
:10081000840000308501853D72088000FB0A0130AC
:100820007C07F400F501F50D7B08523E8400003092
:100830008501853D0008F2000F307205F200F301DA
:1008400074083A3E84000030753D850072088000CF
:1008500002307C07F400F501F50D7B08523E840060
:1008600000308501853D0008F20074083A3E84009E
:100870000030753D850072088000FB0A03307C075C
:10088000F400F501F50D7B08523E8400003085012F
:10089000853D0008F20074083A3E84000030753D42
:1008A000850072088000FB0A0430FC07031CA0339B
:1008B0000130FC0064000C307C0284310318862C6B
:1008C0007C3584008501850D3A3084070030853DF4
:1008D0000008F2001000F3007208A0007308A100E5
:1008E000043081311521F2002108F3007C358400A9
:1008F0008501850D3A3084070030853D72081A0065
:10090000730880000230FC07031CD433FC01640030
:100910000C307C02853103183C2D7C358400850128
:10092000850D3A3084070030853D0008F200100044
:10093000F3007208A6007308A7000F30A200A301FD
:1009400081315321F2002508F3007C3584008501B4
:10095000850D3A3084070030853D72081A0073080F
:1009600080007C3584008501850D3A308407003095
:10097000853D0008F2001000F3007208A000730823
:10098000A100A301003081311A218531031D392DC9
:100990007C3584008501850D3A3084070030853D23
:1009A0000008F2001000F3007208A0007308A10014
:1009B0006430A200A30181313B212408F200250804
:1009C000F3007208A0007308A100A3013230813146
:1009D0001D218531031D122D7C3584008501850D77
:1009E0003A3084070030853D0008F2001000F30023
:1009F0007208A0007308A1006430A200A301813135
:100A00003B21F2002108F3007C3584008501850D2F
:100A10003A3084070030853D72081A007308800060
:100A20008531392D7C3584008501850D3A30840768
:100A30000030853D0008F2001000F3007208A000AD
:100A40007308A1006430A200A30181313B21F200B0
:100A50002108F300F20A0319F30A7C3584008501AA
:100A6000850D3A3084070030853D72081A007308FE
:100A70008000FC0A031D4B33FC0164000C307C0237
:100A800085310318762D7C3584008501850D3A303B
:100A900084070030853D0008F2001000F300720862
:100AA000A0007308A100A301003081311A21853113
:100AB000031D732DA9017C3584008501850D3A3015
:100AC00084070030853D0008F2001000F300720832
:100AD000A4007308A5005030B000B1018031582047
:100AE0002C3080315120FC0A031DC7337808803137
:100AF0000120080064007908003C8531031D842D25
:100B0000FA0108008531852DF9037908FE3C86310C
:100B1000031C902E790885319025FA008631902E9D
:100B20000B0007340E3409341C341B3412341534D2
:100B300038343F3436343134243423342A342D3499
:100B4000703477347E3479346C346B346234653489
:100B500048344F3446344134543453345A345D3479
:100B6000E034E734EE34E934FC34FB34F234F53469
:100B7000D834DF34D634D134C434C334CA34CD3459
:100B8000903497349E3499348C348B348234853449
:100B9000A834AF34A634A134B434B334BA34BD3439
:100BA000C734C034C934CE34DB34DC34D534D23429
:100BB000FF34F834F134F634E334E434ED34EA3419
:100BC000B734B034B934BE34AB34AC34A534A23409
:100BD0008F34883481348634933494349D349A34F9
:100BE0002734203429342E343B343C3435343234E9
:100BF0001F34183411341634033404340D340A34D9
:100C00005734503459345E344B344C3445344234C8
:100C10006F34683461346634733474347D347A34B8
:100C200089348E3487348034953492349B349C34A8
:100C3000B134B634BF34B834AD34AA34A334A43498
:100C4000F934FE34F734F034E534E234EB34EC3488
:100C5000C134C634CF34C834DD34DA34D334D43478
:100C600069346E3467346034753472347B347C3468
:100C7000513456345F3458344D344A344334443458
:100C800019341E3417341034053402340B340C3448
:100C9000213426342F3428343D343A343334343438
:100CA0004E34493440344734523455345C345B3428
:100CB0007634713478347F346A346D346434633418
:100CC0003E34393430343734223425342C342B3408
:100CD0000634013408340F341A341D3414341334F8
:100CE000AE34A934A034A734B234B534BC34BB34E8
:100CF0009634913498349F348A348D3484348334D8
:100D0000DE34D934D034D734C234C534CC34CB34C7
:100D1000E634E134E834EF34FA34FD34F434F334B7
:020D20000800C9
:020000040001F9
:02000E00FCFFF5
:02001000FFDE11
:00000001FF
