:020000040000FA
:100000006F29A20021008E1120000930A3000310E7
:100010001020A20CA30B08280314102003146C2931
:1000200020000318172800008E1120004C288E1580
:1000300020004C282C08A0002D08A100A201A3013B
:1000400021008E16640020008E1E36282000030139
:100050000310A23BA33B03182228A03BA13B031C97
:100060000800A630A2000030A300222820000030A3
:10007000A1001830F1200830A3004C20200003100C
:100080008E1A03142000A20C00004628A30B3D2862
:100090004C20031422086C290030A1006130F128A3
:1000A00004086400111E512823009A0003146C29CF
:1000B000B31329080319B3170530A8002730A3008C
:1000C00010306E200330A300E8306E20A3016430AE
:1000D0006E20A3010A306E2024087528A20025088E
:1000E000A1002408A0003B212008A000A8030319B8
:1000F000B313290803197F282802031808002008D1
:10010000031DB313B31B0800303E67290830A60057
:10011000A700390885003708840035083319DA202C
:10012000331DDC20841338088700360880388600A9
:10013000340881048613A001A101260803196C2943
:10014000B318D42001083405FF3EA00DA10DB31C47
:10015000D420A60BA02827083318042920086C29CE
:100160000830A6003908850037088400350833199F
:10017000DA20331DDC2084133808870036088038E5
:10018000860034098105260803196C2933180421D7
:100190008613A10CA00C01083404031C3406810052
:1001A000D420A60BC9286C29350880060000D82861
:1001B000800608008004DF28FF3A8005E028FF3A27
:1001C000841780056C29A301A200FF30A207031C3D
:1001D000A307031C6C290330A100E330F120E528BC
:1001E000A101F43EA000A109FE30031CFA28A007DB
:1001F0000318F728A0076400A10FF72800002018B3
:100200000129201803290800A201A3010B29A10C30
:10021000A00CA20DA30DFF3E031807292308A1007F
:100220002208A0006C29A136A00CFF3E0318132958
:1002300020086C29A20002302029A20003302029C6
:10024000A80023082102031D2729220820020430C8
:1002500003180130031902302805031DFF306C29F3
:100260000404031DFF306C290038031DFF3084088F
:10027000031DFF3A6C29A501A4011030A600210D31
:10028000A40DA50D2208A4022308A53B03184D299F
:100290002208A4072308A53D0310A00DA10DA60B5D
:1002A0003F2920086C291030A800A101A001A70C4B
:1002B000A60C031C5F292208A0072308A13DA10C5E
:1002C000A00CA50CA40CA80B572924086C298400A9
:1002D00031088A00300882002000640008002300F2
:1002E0000C309B0020309E0090309D00210070302B
:1002F000990023008C018E0120008C1621008C12A5
:1003000020000130A300F4308031E4208C12210061
:100310008C122000D030AC000730AD0080311A20A4
:100320008531031C522DF2000C1221000C1220000A
:100330007208103C031DFF30FF3AF4007208203CA5
:10034000031DFF30FF3AF6007408840076088131FF
:100350003021F600F7007208303C031DFF30FF3AF1
:10036000F800760877048400780881313021F8009D
:10037000F900640078087904823103192F2A720881
:10038000803101200C1521000C110E302000B60028
:100390000030B8000430B4000E30B7000030B900AF
:1003A0000130B5000530B3000130A000A10180315B
:1003B000B0200E30B6000030B8000430B4000E306B
:1003C000B7000030B9000130B5000530B30062302D
:1003D000A000A1018031B0200130FC006400063093
:1003E0007C0282310318092A0E30B6000030B800B2
:1003F0000430B4000E30B7000030B9000130B50051
:100400000530B300A001A1018031B020FC0A031D1A
:10041000E5330C1121000C11013020008031E32064
:100420000C1521000C110E302000B6000030B80071
:100430000430B4000E30B7000030B9000130B50010
:100440000530B3007208A000A1018031B0200F3048
:100450008031E3200C1121000C1120005B3364007B
:100460007208013C8231031D362A5433640072083D
:10047000023C8231031D962A0C1521000C110E300E
:100480002000B6000030B8000430B4000E30B700D1
:100490000030B9000130B5000530B3007208A0008B
:1004A000A1018031B020FC01640007307C02823160
:1004B0000318782A0E30B6000030B8000230B400BD
:1004C0000E30B7000030B9000130B5000630B3007F
:1004D00080318620F4002108F5007C08653E840008
:1004E00000308501853D74088000FC0A031DDC3363
:1004F0000C1121000C112000FC01640007307C026B
:1005000082310318912A7C08653E84000030850101
:10051000853D0008F400740880315120FC0A031D59
:10052000EC3372088031012081318A29640072081D
:10053000033C8231031DC22A563080315120653080
:100540008031512072308031512073308031512000
:100550006930803151206F30803151206E308031D0
:1005600051202030803151203030803151203230C4
:100570008031512005308031E32072088031012024
:1005800081318A2964007208043C8431031D8D2C5A
:100590000C1521000C110E302000B6000030B80000
:1005A0000430B4000E30B7000030B9000130B5009F
:1005B0000530B3007208A000A1018031B020FC0119
:1005C000640013307C0283310318042B0E30B60014
:1005D0000030B8000230B4000E30B7000030B9006F
:1005E0000130B5000630B30080318620F4002108C8
:1005F000F5007C08523E840000308501853D74087A
:100600008000FC0A031DDC330C1121000C112000BA
:10061000FC01FD01640015307D02833103186A2B53
:100620007C08523E840000308501853D0008F400BE
:100630007D083A3E840000308501853D74088000C5
:10064000FC0A01307D07F600F701F70D7C08523EE9
:10065000840000308501853D0008F4000F307405EA
:10066000F400F50176083A3E84000030773D8500BD
:100670007408800002307D07F600F701F70D7C0852
:10068000523E840000308501853D0008F400760864
:100690003A3E84000030773D850074088000FC0AF3
:1006A00003307D07F600F701F70D7C08523E840009
:1006B00000308501853D0008F40076083A3E84004C
:1006C0000030773D850074088000FC0A0430FD0787
:1006D000031CA0330130FD0064000C307D02833127
:1006E0000318982B7D3584008501850D3A308407E9
:1006F0000030853D0008F4001000F5007408A000EB
:100700007508A100043081311521F4002108F5009D
:100710007D3584008501850D3A3084070030853DA4
:1007200074081A00750880000230FD07031CD433DA
:10073000FD0164000C307D02843103184E2C7D35A0
:1007400084008501850D3A3084070030853D00081E
:10075000F4001000F5007408A6007508A7000F301B
:10076000A200A30181315321F4002508F5007D3555
:1007700084008501850D3A3084070030853D74087A
:100780001A00750880007D3584008501850D3A309A
:1007900084070030853D0008F4001000F50074085F
:1007A000A0007508A100A301003081311A21843115
:1007B000031D4B2C7D3584008501850D3A3084075F
:1007C0000030853D0008F4001000F5007408A0001A
:1007D0007508A1006430A200A30181313B212408E7
:1007E000F4002508F5007408A0007508A100A30115
:1007F000323081311D218431031D242C7D3584004C
:100800008501850D3A3084070030853D0008F400ED
:100810001000F5007408A0007508A1006430A20063
:10082000A30181313B21F4002108F5007D358400CE
:100830008501850D3A3084070030853D74081A0023
:100840007508800084314B2C7D3584008501850D31
:100850003A3084070030853D0008F4001000F500B0
:100860007408A0007508A1006430A200A3018131C2
:100870003B21F4002108F500F40A0319F50A7D353F
:1008800084008501850D3A3084070030853D740869
:100890001A0075088000FD0A031D4B33FD0164003A
:1008A0000C307D0284310318882C7D35840085014D
:1008B000850D3A3084070030853D0008F4001000B3
:1008C000F5007408A0007508A100A3010030813173
:1008D0001A218431031D852CA9017D3584008501F1
:1008E000850D3A3084070030853D0008F400100083
:1008F000F5007408A4007508A5005030B000B101DF
:10090000803158202C3080315120FD0A031DC7331F
:1009100072088031012081318A2964007208073C05
:100920008431031DAE2C8C1221008C1220000C1679
:1009300021000C12FA3020008031E320720880314F
:100940000120FA308031E3200C1221000C1220002B
:100950008C1621008C12200081318A2964007208D3
:10096000083C8531031D522D0C1521000C110E3051
:100970002000B6000030B8000430B4000E30B700DC
:100980000030B9000130B5000530B3007208A00096
:10099000A1018031B020FC01640013307C0284315D
:1009A0000318F02C0E30B6000030B8000230B4004E
:1009B0000E30B7000030B9000130B5000630B3008A
:1009C00080318620F4002108F5007C086C3E84000C
:1009D00000308501853D74088000FC0A031DDC336E
:1009E0000C1121000C1120006C08FA000130FC00F1
:1009F000640013307C0285310318112D85315E258A
:100A00007C086C3E840000308501853D0008F400C0
:100A1000740884007B0881313421FA00FC0A031D2C
:100A2000E73364007A08003C8531031D362D0C1233
:100A300021000C1220008C1621008C122000FC01D9
:100A4000640007307C0285310318342D7C086C3E2D
:100A5000840000308501853D0008F4007408803171
:100A60005120FC0A031DEC3385314D2D0C1621005D
:100A70000C1220008C1221008C1245302000803195
:100A800051207230803151207230803151206F30CE
:100A90008031512072308031512072088031012024
:100AA00081318A298C1221008C1220000C12210025
:100AB0000C12200081318A296400FE3364007A0818
:100AC000003C8531031D682DFB0108008531692D2F
:100AD000FA037A08FE3C8631031C742E7A088531AD
:100AE0007425FB008631742E0B0007340E34093454
:100AF0001C341B341234153438343F34363431341A
:100B0000243423342A342D34703477347E347934C9
:100B10006C346B346234653448344F344634413479
:100B2000543453345A345D34E034E734EE34E93429
:100B3000FC34FB34F234F534D834DF34D634D134D9
:100B4000C434C334CA34CD34903497349E34993489
:100B50008C348B3482348534A834AF34A634A13439
:100B6000B434B334BA34BD34C734C034C934CE34E9
:100B7000DB34DC34D534D234FF34F834F134F63499
:100B8000E334E434ED34EA34B734B034B934BE3449
:100B9000AB34AC34A534A2348F34883481348634F9
:100BA000933494349D349A342734203429342E34A9
:100BB0003B343C34353432341F3418341134163459
:100BC000033404340D340A345734503459345E3409
:100BD0004B344C34453442346F34683461346634B9
:100BE000733474347D347A3489348E348734803469
:100BF000953492349B349C34B134B634BF34B83419
:100C0000AD34AA34A334A434F934FE34F734F034C8
:100C1000E534E234EB34EC34C134C634CF34C83478
:100C2000DD34DA34D334D43469346E346734603428
:100C3000753472347B347C34513456345F345834D8
:100C40004D344A344334443419341E341734103488
:100C5000053402340B340C34213426342F34283438
:100C60003D343A34333434344E34493440344734E8
:100C7000523455345C345B347634713478347F3498
:100C80006A346D34643463343E3439343034373448
:100C9000223425342C342B340634013408340F34F8
:100CA0001A341D3414341334AE34A934A034A734A8
:100CB000B234B534BC34BB349634913498349F3458
:100CC0008A348D3484348334DE34D934D034D73408
:100CD000C234C534CC34CB34E634E134E834EF34B8
:0A0CE000FA34FD34F434F334080054
:020000040001F9
:02000E00FCFFF5
:02001000FFDE11
:00000001FF
