:020000040000FA
:100000007629A20021008E1120000930A3000310E0
:100010001020A20CA30B082803141020031473292A
:1000200020000318172800008E1120004C288E1580
:1000300020004C282C08A0002D08A100A201A3013B
:1000400021008E16640020008E1E36282000030139
:100050000310A23BA33B03182228A03BA13B031C97
:100060000800A630A2000030A300222820000030A3
:10007000A1001830F1200830A3004C20200003100C
:100080008E1A03142000A20C00004628A30B3D2862
:100090004C200314220873290030A1006130F1289C
:1000A00004086400111E512823009A0003147329C8
:1000B000B31329080319B3170530A8002730A3008C
:1000C00010306E200330A300E8306E20A3016430AE
:1000D0006E20A3010A306E2024087528A20025088E
:1000E000A1002408A00042212008A000A8030319B1
:1000F000B313290803197F282802031808002008D1
:10010000031DB313B31B0800303E6E290830A60050
:10011000A700390885003708840035083319DA202C
:10012000331DDC20841338088700360880388600A9
:10013000340881048613A001A1012608031973293C
:10014000B318D42001083405FF3EA00DA10DB31C47
:10015000D420A60BA02827083318042920087329C7
:100160000830A6003908850037088400350833199F
:10017000DA20331DDC2084133808870036088038E5
:1001800086003409810526080319732933180421D0
:100190008613A10CA00C01083404031C3406810052
:1001A000D420A60BC9287329350880060000D8285A
:1001B000800608008004DF28FF3A8005E028FF3A27
:1001C000841780057329A301A200FF30A207031C36
:1001D000A307031C73290330A100E330F120E528B5
:1001E000A101F43EA000A109FE30031CFA28A007DB
:1001F0000318F728A0076400A10FF72800002018B3
:100200000129201803290800A201A3010B29A10C30
:10021000A00CA20DA30DFF3E031807292308A1007F
:100220002208A0007329A035A10DFF3E0318132951
:1002300020087329A136A00CFF3E03181A292008B4
:100240007329A20002302729A20003302729A80021
:1002500023082102031D2E2922082002043003183E
:100260000130031902302805031DFF3073290038BF
:10027000031DFF300405031DFF3073290404031D13
:10028000FF307329A501A4011030A600210DA40D93
:10029000A50D2208A4022308A53B0318542922080F
:1002A000A4072308A53D0310A00DA10DA60B462908
:1002B000200873291030A800A101A001A70CA60CEA
:1002C000031C66292208A0072308A13DA10CA00C4D
:1002D000A50CA40CA80B5E292408732984003108FE
:1002E0008A003008820020006400080023000C30DF
:1002F0009B0020309E0090309D00210070309900BE
:10030000230001308C008E01210090309E002000DF
:100310008C1621008C1220000130A300F4308031B3
:10032000E4208C1221008C12200000308C19013046
:10033000210009182514091C25102000D030AC001C
:100340000730AD0080311A208331031C112B2100AE
:10035000A20020008C1221008C1220000C1221001F
:100360000C122208103C031DFF30FF3A2000FA0057
:1003700021002208203C031DFF30FF3A2000FC0032
:100380007A0884007C0881313E21FC00FD002100B8
:100390002208303C031DFF30FF3A2000FE007C089D
:1003A0007D0484007E0881313E21FE00FF00640050
:1003B0007E087F0481310319E529210022082000ED
:1003C0008031012083311D23B933640021002208CC
:1003D000013C81312000031DEE29B033640021006F
:1003E0002208023C82312000031D612A0C152100E5
:1003F0000C110E302000B6000030B8000430B400FC
:100400000E30B7000030B9000130B5000530B30040
:10041000210022082000A000A1018031B02021008D
:10042000A60120006400073021002602823120004E
:1004300003183C2A0E30B6000030B8000230B40079
:100440000E30B7000030B9000130B5000630B300FF
:1004500080318620FA002108FB0021002608653E35
:10046000840000308501853D20007A08800021004D
:10047000A60A2000031DD6330C1121000C11A60181
:10048000200064000730210026028231200003187A
:100490005B2A21002608653E840000308501853DE9
:1004A00000082000FA007A08803151202100A60AB5
:1004B0002000031DE63321002208200080310120A6
:1004C0003D33640021002208033C82312000031DDB
:1004D000902A563080315120653080315120723061
:1004E000803151207330803151206930803151206A
:1004F0006F30803151206E3080315120203080317A
:10050000512030308031512035308031512005303C
:100510008031E320210022082000803101200E33A9
:10052000640021002208043C82312000031D9B2A24
:100530008331B2230333640021002208073C823157
:100540002000031DC02A8C1221008C1220000C16E2
:1005500021000C12FA3020008031E3202100220813
:10056000200080310120FA308031E3200C1221007C
:100570000C1220008C1621008C12200081319E2943
:10058000640021002208083C82312000031DCC2A8F
:100590008531C02581319E29640021002208C83C94
:1005A00082312000031DE72A21001030A20022081A
:1005B00020008031012083311D23863192262100C5
:1005C0000430A20020008331B22381319E296400CF
:1005D00021002208C93C83312000031D002B21008B
:1005E0003030A200220820008031012083311D23F9
:1005F00021000830A20020008531C02581319E29CC
:10060000640021002208CA3C83312000031D112B05
:100610008631D62621002208200080310120813138
:100620009E298C1221008C1220000C1221000C1229
:10063000200081319E296400FE330C1521000C112D
:100640000E302000B6000030B8000430B4000E3088
:10065000B7000030B9000130B5000530B3000130FB
:10066000A000A1018031B0200E30B6000030B800EB
:100670000430B4000E30B7000030B9000130B500CE
:100680000530B3006230A000A1018031B02021000C
:100690000130A600200064000630210026028331CC
:1006A000200003186A2B0E30B6000030B80004306A
:1006B000B4000E30B7000030B9000130B50005308D
:1006C000B300A001A1018031B0202100A60A2000C2
:1006D000031DE1330C1121000C1101302000803189
:1006E000E3200C1521000C110E302000B600003064
:1006F000B8000430B4000E30B7000030B90001304B
:10070000B5000530B300210022082000A000A1019F
:100710008031B0200F308031E3200C1121000C110A
:1007200022080A3C031DFF30FF3A2000FA000301B3
:100730002100251CFF302000FC007A0884007C0882
:1007400081313721FC00FD0064007C087D04833189
:100750000319AE2B863192268331B12B01308031C3
:10076000E32008000C1521000C110E302000B6000B
:100770000030B8000430B4000E30B7000030B900CB
:100780000130B5000530B300210022082000A00090
:10079000A1018031B0202100A601200064001330A7
:1007A00021002602833120000318F82B0E30B600FA
:1007B0000030B8000230B4000E30B7000030B9008D
:1007C0000130B5000630B30080318620FA002108E0
:1007D000FB0021002608523E840000308501853D43
:1007E00020007A0880002100A60A2000031DD633CD
:1007F0000C1121000C11A601A70120006400153086
:1008000021002702843120000318722C21002608C1
:10081000523E840000308501853D00082000FA002A
:10082000210027083A3E840000308501853D2000E4
:100830007A0880002100A60A013027072000FC006A
:10084000FD01FD0D21002608523E84000030850187
:10085000853D00082000FA000F307A05FA00FB0100
:100860007C083A3E840000307D3D85007A08800097
:100870000230210027072000FC00FD01FD0D2100B2
:100880002608523E840000308501853D0008200086
:10089000FA007C083A3E840000307D3D85007A08ED
:1008A00080002100A60A033027072000FC00FD017C
:1008B000FD0D21002608523E840000308501853D53
:1008C00000082000FA007C083A3E840000307D3D9C
:1008D00085007A0880002100A60A0430A7072000BE
:1008E000031C8C3321000130A700200064000C3071
:1008F00021002702843120000318AA2C210027356B
:1009000084008501850D3A3084070030853D00085C
:100910002000FA001000FB007A08A0007B08A1006C
:10092000043081311C21FA002108FB002100273509
:1009300084008501850D3A3084070030853D200014
:100940007A081A007B08800002302100A7072000E7
:10095000031CCC332100A701200064000C302100CF
:100960002702853120000318762D210027358400C9
:100970008501850D3A3084070030853D0008200050
:10098000FA001000FB007A08A6007B08A7000F30D1
:10099000A200A30181315A21FA002508FB002100A1
:1009A000273584008501850D3A3084070030853D68
:1009B00020007A081A007B08800021002735840077
:1009C0008501850D3A3084070030853D0008200000
:1009D000FA001000FB007A08A0007B08A100A30128
:1009E0000030813121218531031D712D21002735F2
:1009F00084008501850D3A3084070030853D00086C
:100A00002000FA001000FB007A08A0007B08A1007B
:100A10006430A200A301813142212408FA00250894
:100A2000FB007A08A0007B08A100A30132308131CD
:100A300024218531031D462D2100273584008501A1
:100A4000850D3A3084070030853D00082000FA000B
:100A50001000FB007A08A0007B08A1006430A2000F
:100A6000A30181314221FA002108FB002100273532
:100A700084008501850D3A3084070030853D2000D3
:100A80007A081A007B0880008531712D21002735F6
:100A900084008501850D3A3084070030853D0008CB
:100AA0002000FA001000FB007A08A0007B08A100DB
:100AB0006430A200A30181314221FA002108FB0029
:100AC000FA0A0319FB0A2100273584008501850DE8
:100AD0003A3084070030853D20007A081A007B08F0
:100AE00080002100A70A2000031D37332100A70141
:100AF000200064000C3021002702853120000318FB
:100B0000BA2D2100273584008501850D3A308407F0
:100B10000030853D00082000FA001000FB007A0834
:100B2000A0007B08A100A301003081312121853183
:100B3000031DB52DA9012100273584008501850DF0
:100B40003A3084070030853D00082000FA0010008C
:100B5000FB007A08A4007B08A5005030B000B1016A
:100B6000803158202C30803151202100A70A2000EC
:100B7000031DBF332100220820008031012008001E
:100B80000C1521000C110E302000B6000030B8000A
:100B90000430B4000E30B7000030B9000130B500A9
:100BA0000530B300210022082000A000A1018031FF
:100BB000B0202100A601200064000630210026029A
:100BC000863120000318062E0E30B6000030B80023
:100BD0000230B4000E30B7000030B9000130B5006B
:100BE0000630B30080318620FA002108FB00210086
:100BF0002608723E840000308501853D20007A0879
:100C000080002100A60A2000031DD6330C1121000C
:100C10000C110F3020007305EC00ED016C08A000F2
:100C20006D08A100083081311521EC002108ED008C
:100C30007208EC070318ED0A7408EE00EF016E0865
:100C4000A0006F08A100083081311521EE002108B5
:100C5000EF007308EE070318EF0A6E08A0006F0894
:100C6000A100043081311C21EE002108EF000F307B
:100C70007605F000F1017008A0007108A1000830AD
:100C800081311521F0002108F1007508F0070318E3
:100C9000F10A7136FB00700CFA007A08F0077B0845
:100CA000F13D7008A0007108A1000830A200A30166
:100CB00081314221F0002108F1001130F0020130B1
:100CC000F13B2100A701200064000330210027022E
:100CD0008631200003188C2EA901210027358400BD
:100CE0008501850D6C3084070030853D00082000AB
:100CF000FA001000FB007A08A4007B08A500503021
:100D0000B000B101803158202C30803151202100B9
:100D1000A70A2000031DD8332100220820008031BB
:100D200001200800640086312100831025188314F7
:100D300020008318D52EF801F901210001309D0013
:100D4000A601200064000430210026028631200024
:100D50000318C82E21009D14200064008631210054
:100D600083109D1C831420008318B72EF6332100B6
:100D70001C08A1001B08A00020082000F807210083
:100D800021082000F93D2100A60A2000031DDA33C6
:100D900021009D0120007808A0007908A100023000
:100DA00081311C21F8002108F90008006400863117
:100DB000210083102518831420008318EC2EA9012C
:100DC0007808A4007908A5005030B000B101803146
:100DD00058202C3080315120080064002100230865
:100DE000003C86312000031DFB2E2100A4012000C1
:100DF00008008631FE2E2100A303200021002308D5
:100E0000FE3C88312000031C0F282100230820000D
:100E100087310F272100A400200088310F280B0004
:100E200007340E3409341C341B341234153438346E
:100E30003F3436343134243423342A342D3470345E
:100E400077347E3479346C346B34623465344834AE
:100E50004F3446344134543453345A345D34E034DE
:100E6000E734EE34E934FC34FB34F234F534D8346E
:100E7000DF34D634D134C434C334CA34CD3490349E
:100E800097349E3499348C348B3482348534A8342E
:100E9000AF34A634A134B434B334BA34BD34C73417
:100EA000C034C934CE34DB34DC34D534D234FF34EE
:100EB000F834F134F634E334E434ED34EA34B7345E
:100EC000B034B934BE34AB34AC34A534A2348F342E
:100ED000883481348634933494349D349A3427345E
:100EE000203429342E343B343C34353432341F34EE
:100EF000183411341634033404340D340A3457349E
:100F0000503459345E344B344C34453442346F34AD
:100F1000683461346634733474347D347A3489349B
:100F20008E3487348034953492349B349C34B1347D
:100F3000B634BF34B834AD34AA34A334A434F9344D
:100F4000FE34F734F034E534E234EB34EC34C134BD
:100F5000C634CF34C834DD34DA34D334D4346934CD
:100F60006E3467346034753472347B347C3451347D
:100F700056345F3458344D344A344334443419348D
:100F80001E3417341034053402340B340C3421343D
:100F900026342F3428343D343A34333434344E3408
:100FA000493440344734523455345C345B347634FD
:100FB000713478347F346A346D34643463343E344D
:100FC000393430343734223425342C342B3406343D
:100FD000013408340F341A341D3414341334AE344D
:100FE000A934A034A734B234B534BC34BB349634FD
:100FF000913498349F348A348D3484348334DE348D
:10100000D934D034D734C234C534CC34CB34E634BC
:10101000E134E834EF34FA34FD34F434F3340800C6
:020000040001F9
:02000E00BCFF35
:02001000FFDE11
:00000001FF
