:020000040000FA
:100000006F29A20021008E1120000930A3000310E7
:100010001020A20CA30B08280314102003146C2931
:1000200020000318172800008E1120004C288E1580
:1000300020004C282C08A0002D08A100A201A3013B
:1000400021008E16640020008E1E36282000030139
:100050000310A23BA33B03182228A03BA13B031C97
:100060000800A630A2000030A300222820000030A3
:10007000A1001830F1200830A3004C20200003100C
:100080008E1A03142000A20C00004628A30B3D2862
:100090004C20031422086C290030A1006130F128A3
:1000A00004086400111E512823009A0003146C29CF
:1000B000B31329080319B3170530A8002730A3008C
:1000C00010306E200330A300E8306E20A3016430AE
:1000D0006E20A3010A306E2024087528A20025088E
:1000E000A1002408A0003B212008A000A8030319B8
:1000F000B313290803197F282802031808002008D1
:10010000031DB313B31B0800303E67290830A60057
:10011000A700390885003708840035083319DA202C
:10012000331DDC20841338088700360880388600A9
:10013000340881048613A001A101260803196C2943
:10014000B318D42001083405FF3EA00DA10DB31C47
:10015000D420A60BA02827083318042920086C29CE
:100160000830A6003908850037088400350833199F
:10017000DA20331DDC2084133808870036088038E5
:10018000860034098105260803196C2933180421D7
:100190008613A10CA00C01083404031C3406810052
:1001A000D420A60BC9286C29350880060000D82861
:1001B000800608008004DF28FF3A8005E028FF3A27
:1001C000841780056C29A301A200FF30A207031C3D
:1001D000A307031C6C290330A100E330F120E528BC
:1001E000A101F43EA000A109FE30031CFA28A007DB
:1001F0000318F728A0076400A10FF72800002018B3
:100200000129201803290800A201A3010B29A10C30
:10021000A00CA20DA30DFF3E031807292308A1007F
:100220002208A0006C29A136A00CFF3E0318132958
:1002300020086C29A20002302029A20003302029C6
:10024000A80023082102031D2729220820020430C8
:1002500003180130031902302805031DFF306C29F3
:100260000404031DFF306C290038031DFF3084088F
:10027000031DFF3A6C29A501A4011030A600210D31
:10028000A40DA50D2208A4022308A53B03184D299F
:100290002208A4072308A53D0310A00DA10DA60B5D
:1002A0003F2920086C291030A800A101A001A70C4B
:1002B000A60C031C5F292208A0072308A13DA10C5E
:1002C000A00CA50CA40CA80B572924086C298400A9
:1002D00031088A00300882002000640008002300F2
:1002E0000C309B0020309E0090309D00210070302B
:1002F000990023008C018E0120008C1621008C12A5
:1003000020000130A300F4308031E4208C12210061
:100310008C122000D030AC000730AD0080311A20A4
:100320008331031C6B2BFD008C1221008C122000EA
:100330000C1221000C1220007D08103C031DFF3020
:10034000FF3AF4007D08203C031DFF30FF3AF60021
:1003500074088400760881313021F600F7007D08AA
:10036000303C031DFF30FF3AF80076087704840024
:10037000780881313021F800F900640078087904A8
:1003800081310319C9297D08803101208331772308
:10039000C13364007D08013C8131031DD029BA338B
:1003A00064007D08023C8231031D3D2A0C152100AA
:1003B0000C110E302000B6000030B8000430B4003C
:1003C0000E30B7000030B9000130B5000530B30081
:1003D0007D08A000A1018031B0202100A0012000F3
:1003E00064000730210020028231200003181A2AFD
:1003F0000E30B6000030B8000230B4000E30B70046
:100400000030B9000130B5000630B30080318620DD
:10041000F4002108F50021002008653E840000302A
:100420008501853D2000740880002100A00A20007D
:10043000031DD6330C1121000C11A0012000640013
:10044000073021002002823120000318392A2100C0
:100450002008653E840000308501853D00082000AD
:10046000F4007408803151202100A00A2000031DEF
:10047000E6337D08803101204D3364007D08033C64
:100480008231031D682A5630803151206530803119
:1004900051207230803151207330803151206930C9
:1004A000803151206F30803151206E3080315120A9
:1004B0002030803151203030803151203330803134
:1004C000512005308031E3207D0880310120223326
:1004D00064007D08043C8231031D712A8331EA23C4
:1004E000193364007D08073C8231031D922A8C1267
:1004F00021008C1220000C1621000C12FA30200072
:100500008031E3207D0880310120FA308031E32002
:100510000C1221000C1220008C1621008C122000DD
:1005200081318A2964007D08083C8331031D4C2BEE
:100530000C1521000C110E302000B6000030B80060
:100540000430B4000E30B7000030B9000130B500FF
:100550000530B3007D08A000A1018031B02021004A
:10056000A00120006400133021002002823120000D
:100570000318DC2A0E30B6000030B8000230B40098
:100580000E30B7000030B9000130B5000630B300BE
:1005900080318620F4002108F500210020086C3EFF
:1005A000840000308501853D200074088000210012
:1005B000A00A2000031DD6330C1121000C112000CD
:1005C0006C08FE0021000130A00020006400133000
:1005D00021002002833120000318052B8631662676
:1005E000210020086C3E840000308501853D000814
:1005F0002000F400740884007F0881313421FE005B
:100600002100A00A2000031DE13364007E08003CA5
:100610008331031D302B0C1221000C1220008C168C
:1006200021008C12A001200064000730210020026C
:100630008331200003182E2B210020086C3E8400FB
:1006400000308501853D00082000F40074088031E9
:1006500051202100A00A2000031DE6338331472BDF
:100660000C1621000C1220008C1221008C12453037
:100670002000803151207230803151207230803121
:1006800051206F30803151207230803151207D08EF
:100690008031012081318A2964007D08C83C833182
:1006A000031D612B1030FD007D0880310120833156
:1006B00077238531F4250430FD008331EA2381312D
:1006C0008A2964007D08C93C8331031D6B2B863168
:1006D000222681318A298C1221008C1220000C12D2
:1006E00021000C12200081318A296400FE330C1590
:1006F00021000C110E302000B6000030B80004308C
:10070000B4000E30B7000030B9000130B50005303C
:10071000B3000130A000A1018031B0200E30B6003E
:100720000030B8000430B4000E30B7000030B9001B
:100730000130B5000530B3006230A000A101803166
:10074000B02021000130A00020006400063021000C
:100750002002833120000318C42B0E30B600003075
:10076000B8000430B4000E30B7000030B9000130DA
:10077000B5000530B300A001A1018031B0202100F7
:10078000A00A2000031DE1330C1121000C110130DF
:1007900020008031E3200C1521000C110E302000C8
:1007A000B6000030B8000430B4000E30B70000309E
:1007B000B9000130B5000530B3007D08A000A101EB
:1007C0008031B0200F308031E3200C1121000C115A
:1007D000200008000C1521000C110E302000B6007E
:1007E0000030B8000430B4000E30B7000030B9005B
:1007F0000130B5000530B3007D08A000A1018031B3
:10080000B0202100A001200064001330210020024C
:100810008431200003182E2C0E30B6000030B800B2
:100820000230B4000E30B7000030B9000130B5001E
:100830000630B30080318620F4002108F500210045
:100840002008523E840000308501853D2000740858
:1008500080002100A00A2000031DD6330C112100C6
:100860000C11A001A101200064001530210021021B
:10087000843120000318A82C21002008523E840057
:1008800000308501853D00082000F400210021088A
:100890003A3E840000308501853D200074088000C8
:1008A0002100A00A013021072000F600F701F70D12
:1008B00021002008523E840000308501853D00085B
:1008C0002000F4000F307405F400F50176083A3E7C
:1008D00084000030773D85007408800002302100DC
:1008E00021072000F600F701F70D21002008523EF5
:1008F000840000308501853D00082000F400760862
:100900003A3E84000030773D850074088000210065
:10091000A00A033021072000F600F701F70D21009F
:100920002008523E840000308501853D00082000EB
:10093000F40076083A3E84000030773D8500740864
:1009400080002100A00A0430A1072000031C8C3382
:1009500021000130A100200064000C3021002102A0
:10096000843120000318E02C21002135840085010A
:10097000850D3A3084070030853D00082000F400E2
:100980001000F5007408A0007508A1000430813142
:100990001521F4002108F50021002135840085018E
:1009A000850D3A3084070030853D200074081A0018
:1009B0007508800002302100A1072000031CCC3301
:1009C0002100A101200064000C30210021028531AA
:1009D00020000318AC2D2100213584008501850DF0
:1009E0003A3084070030853D00082000F4001000F4
:1009F000F5007408A6007508A7000F30A200A30137
:100A000081315321F4002508F500210021358400AF
:100A10008501850D3A3084070030853D200074083B
:100A20001A00750880002100213584008501850D9C
:100A30003A3084070030853D00082000F4001000A3
:100A4000F5007408A0007508A100A30100308131F1
:100A50001A218531031DA72D210021358400850130
:100A6000850D3A3084070030853D00082000F400F1
:100A70001000F5007408A0007508A1006430A20001
:100A8000A30181313B212408F4002508F5007408F6
:100A9000A0007508A100A301323081311D218531EC
:100AA000031D7C2D2100213584008501850D3A3000
:100AB00084070030853D00082000F4001000F50098
:100AC0007408A0007508A1006430A200A301813160
:100AD0003B21F4002108F500210021358400850127
:100AE000850D3A3084070030853D200074081A00D7
:100AF000750880008531A72D2100213584008501EE
:100B0000850D3A3084070030853D00082000F40050
:100B10001000F5007408A0007508A1006430A20060
:100B2000A30181313B21F4002108F500F40A0319E7
:100B3000F50A2100213584008501850D3A308407AE
:100B40000030853D200074081A00750880002100DF
:100B5000A10A2000031D37332100A10120006400F9
:100B60000C3021002102853120000318F02D2100D6
:100B7000213584008501850D3A3084070030853D9C
:100B800000082000F4001000F5007408A0007508AB
:100B9000A100A301003081311A218531031DEB2D05
:100BA000A9012100213584008501850D3A30840793
:100BB0000030853D00082000F4001000F5007408A6
:100BC000A4007508A5005030B000B1018031582054
:100BD0002C30803151202100A10A2000031DBF3399
:100BE0007D08803101200800F201F301210041302D
:100BF0009D00A00120006400043021002002863105
:100C000020000318212E21009D142000640086314D
:100C1000210083109D1C831420008318102EF633AE
:100C200021001C082000FB0021001B082000FA0006
:100C30007A08F2077B08F33D2100A00A2000031D7B
:100C4000DA330800F336F20C7208A6007308A70026
:100C5000A201FA30A300813153212008F2002108BB
:100C6000F3007208A0007308A1000330A300E8306D
:100C700081311D218631031D492E7208E83CF200A6
:100C80007308031C013E033CF3002D30FC00863149
:100C90004F2EE830F2020330F33B2B30FC00720899
:100CA000A0007308A1001430A200A30181313B21F0
:100CB000F2002108F300A9017208A4007308A5003E
:100CC0005030B000B10180315820080064007E0827
:100CD000003C8631031D702EFF0108008631712E05
:100CE000FE037E08FE3C8731031C7C2F7E08863184
:100CF0007C26FF0087317C2F0B0007340E3409342B
:100D00001C341B341234153438343F343634313407
:100D1000243423342A342D34703477347E347934B7
:100D20006C346B346234653448344F344634413467
:100D3000543453345A345D34E034E734EE34E93417
:100D4000FC34FB34F234F534D834DF34D634D134C7
:100D5000C434C334CA34CD34903497349E34993477
:100D60008C348B3482348534A834AF34A634A13427
:100D7000B434B334BA34BD34C734C034C934CE34D7
:100D8000DB34DC34D534D234FF34F834F134F63487
:100D9000E334E434ED34EA34B734B034B934BE3437
:100DA000AB34AC34A534A2348F34883481348634E7
:100DB000933494349D349A342734203429342E3497
:100DC0003B343C34353432341F3418341134163447
:100DD000033404340D340A345734503459345E34F7
:100DE0004B344C34453442346F34683461346634A7
:100DF000733474347D347A3489348E348734803457
:100E0000953492349B349C34B134B634BF34B83406
:100E1000AD34AA34A334A434F934FE34F734F034B6
:100E2000E534E234EB34EC34C134C634CF34C83466
:100E3000DD34DA34D334D43469346E346734603416
:100E4000753472347B347C34513456345F345834C6
:100E50004D344A344334443419341E341734103476
:100E6000053402340B340C34213426342F34283426
:100E70003D343A34333434344E34493440344734D6
:100E8000523455345C345B347634713478347F3486
:100E90006A346D34643463343E3439343034373436
:100EA000223425342C342B340634013408340F34E6
:100EB0001A341D3414341334AE34A934A034A73496
:100EC000B234B534BC34BB349634913498349F3446
:100ED0008A348D3484348334DE34D934D034D734F6
:100EE000C234C534CC34CB34E634E134E834EF34A6
:0A0EF000FA34FD34F434F334080042
:020000040001F9
:02000E00FCFFF5
:02001000FFDE11
:00000001FF
