:020000040000FA
:100000006F29A20021008E1120000930A3000310E7
:100010001020A20CA30B08280314102003146C2931
:1000200020000318172800008E1120004C288E1580
:1000300020004C282C08A0002D08A100A201A3013B
:1000400021008E16640020008E1E36282000030139
:100050000310A23BA33B03182228A03BA13B031C97
:100060000800A630A2000030A300222820000030A3
:10007000A1001830F1200830A3004C20200003100C
:100080008E1A03142000A20C00004628A30B3D2862
:100090004C20031422086C290030A1006130F128A3
:1000A00004086400111E512823009A0003146C29CF
:1000B000B31329080319B3170530A8002730A3008C
:1000C00010306E200330A300E8306E20A3016430AE
:1000D0006E20A3010A306E2024087528A20025088E
:1000E000A1002408A0003B212008A000A8030319B8
:1000F000B313290803197F282802031808002008D1
:10010000031DB313B31B0800303E67290830A60057
:10011000A700390885003708840035083319DA202C
:10012000331DDC20841338088700360880388600A9
:10013000340881048613A001A101260803196C2943
:10014000B318D42001083405FF3EA00DA10DB31C47
:10015000D420A60BA02827083318042920086C29CE
:100160000830A6003908850037088400350833199F
:10017000DA20331DDC2084133808870036088038E5
:10018000860034098105260803196C2933180421D7
:100190008613A10CA00C01083404031C3406810052
:1001A000D420A60BC9286C29350880060000D82861
:1001B000800608008004DF28FF3A8005E028FF3A27
:1001C000841780056C29A301A200FF30A207031C3D
:1001D000A307031C6C290330A100E330F120E528BC
:1001E000A101F43EA000A109FE30031CFA28A007DB
:1001F0000318F728A0076400A10FF72800002018B3
:100200000129201803290800A201A3010B29A10C30
:10021000A00CA20DA30DFF3E031807292308A1007F
:100220002208A0006C29A035A10DFF3E0318132958
:1002300020086C29A136A00CFF3E03181A292008BB
:100240006C29A20002302729A20003302729A80028
:1002500023082102031D2E2922082002043003183E
:100260000130031902302805031DFF306C290404F6
:10027000031DFF306C29A501A4011030A600210D3B
:10028000A40DA50D2208A4022308A53B03184D299F
:100290002208A4072308A53D0310A00DA10DA60B5D
:1002A0003F2920086C291030A800A101A001A70C4B
:1002B000A60C031C5F292208A0072308A13DA10C5E
:1002C000A00CA50CA40CA80B572924086C298400A9
:1002D00031088A00300882002000640008002300F2
:1002E0000C309B0020309E0090309D00210070302B
:1002F0009900230001308C008E01210090309E0077
:1003000020008C1621008C1220000130A300F43054
:100310008031E4208C1221008C122000D030AC00FF
:100320000730AD0080311A208231031CE62A2100FB
:10033000A20020008C1221008C1220000C1221003F
:100340000C122208103C031DFF30FF3A2000FA0077
:1003500021002208203C031DFF30FF3A2000FC0052
:100360007A0884007C0881313721FC00FD002100DF
:100370002208303C031DFF30FF3A2000FE007C08BD
:100380007D0484007E0881313721FE00FF00640077
:100390007E087F0481310319D5292100220820001D
:1003A000803101208231F222B93364002100220819
:1003B000013C81312000031DDE29B033640021009F
:1003C0002208023C82312000031D512A0C15210015
:1003D0000C110E302000B6000030B8000430B4001C
:1003E0000E30B7000030B9000130B5000530B30061
:1003F000210022082000A000A1018031B0202100AE
:10040000A501200064000730210025028231200070
:1004100003182C2A0E30B6000030B8000230B400A9
:100420000E30B7000030B9000130B5000630B3001F
:1004300080318620FA002108FB0021002508653E56
:10044000840000308501853D20007A08800021006D
:10045000A50A2000031DD6330C1121000C11A501A3
:10046000200064000730210025028231200003189B
:100470004B2A21002508653E840000308501853D1A
:1004800000082000FA007A08803151202100A50AD6
:100490002000031DE63321002208200080310120C6
:1004A0003D33640021002208033C82312000031DFB
:1004B000802A563080315120653080315120723091
:1004C000803151207330803151206930803151208A
:1004D0006F30803151206E3080315120203080319A
:1004E000512030308031512035308031512005305D
:1004F0008031E320210022082000803101200E33CA
:10050000640021002208043C82312000031D8B2A54
:10051000833167230333640021002208073C8231C2
:100520002000031DB02A8C1221008C1220000C1612
:1005300021000C12FA3020008031E3202100220833
:10054000200080310120FA308031E3200C1221009C
:100550000C1220008C1621008C12200081318E2973
:10056000640021002208083C82312000031DBF2ABC
:100570002100220820008031012081318E29640071
:1005800021002208C83C82312000031DDA2A210004
:100590001030A20022082000803101208231F22296
:1005A00086312A2621000430A200200083316723EF
:1005B00081318E29640021002208CA3C823120004A
:1005C000031DE62A8631652681318E298C12210091
:1005D0008C1220000C1221000C12200081318E2977
:1005E0006400FE330C1521000C110E302000B60003
:1005F0000030B8000430B4000E30B7000030B9004D
:100600000130B5000530B3000130A000A1018031F8
:10061000B0200E30B6000030B8000430B4000E3008
:10062000B7000030B9000130B5000530B3006230CA
:10063000A000A1018031B02021000130A5002000E0
:1006400064000630210025028331200003183F2B6F
:100650000E30B6000030B8000430B4000E30B700E1
:100660000030B9000130B5000530B300A001A10190
:100670008031B0202100A50A2000031DE1330C11B8
:1006800021000C11013020008031E3200C152100E5
:100690000C110E302000B6000030B8000430B40059
:1006A0000E30B7000030B9000130B5000530B3009E
:1006B000210022082000A000A1018031B0200F30CD
:1006C0008031E3200C1121000C11200008000C15D2
:1006D00021000C110E302000B6000030B8000430AC
:1006E000B4000E30B7000030B9000130B50005305D
:1006F000B300210022082000A000A1018031B02019
:100700002100A5012000640013302100250283315F
:1007100020000318AD2B0E30B6000030B8000230B8
:10072000B4000E30B7000030B9000130B50006301B
:10073000B30080318620FA002108FB002100250843
:10074000523E840000308501853D20007A088000FB
:100750002100A50A2000031DD6330C1121000C1125
:10076000A501A60120006400153021002602843175
:1007700020000318272C21002508523E8400003059
:100780008501853D00082000FA00210026083A3E38
:10079000840000308501853D20007A08800021001A
:1007A000A50A013026072000FC00FD01FD0D2100F7
:1007B0002508523E840000308501853D0008200058
:1007C000FA000F307A05FA00FB017C083A3E8400FB
:1007D00000307D3D85007A08800002302100260728
:1007E0002000FC00FD01FD0D21002508523E840083
:1007F00000308501853D00082000FA007C083A3E63
:10080000840000307D3D85007A0880002100A50A23
:10081000033026072000FC00FD01FD0D2100250806
:10082000523E840000308501853D00082000FA001A
:100830007C083A3E840000307D3D85007A088000C7
:100840002100A50A0430A6072000031C8C332100D8
:100850000130A600200064000C3021002602843103
:10086000200003185F2C2100263584008501850DAA
:100870003A3084070030853D00082000FA0010005F
:10088000FB007A08A0007B08A100043081311C2104
:10089000FA002108FB002100263584008501850D22
:1008A0003A3084070030853D20007A081A007B0822
:1008B000800002302100A6072000031CCC33210059
:1008C000A601200064000C302100260285312000A2
:1008D00003182B2D2100263584008501850D3A3023
:1008E00084070030853D00082000FA001000FB005E
:1008F0007A08A6007B08A7000F30A200A30181316F
:100900005321FA002508FB002100263584008501CB
:10091000850D3A3084070030853D20007A081A00A2
:100920007B0880002100263584008501850D3A3042
:1009300084070030853D00082000FA001000FB000D
:100940007A08A0007B08A100A30100308131212199
:100950008531031D262D2100263584008501850D56
:100960003A3084070030853D00082000FA0010006E
:10097000FB007A08A0007B08A1006430A200A3015C
:1009800081313B212408FA002508FB007A08A000E9
:100990007B08A100A3013230813124218431031D61
:1009A000FB2C2100263584008501850D3A30840713
:1009B0000030853D00082000FA001000FB007A0896
:1009C000A0007B08A1006430A200A30181313B217B
:1009D000FA002108FB002100263584008501850DE1
:1009E0003A3084070030853D20007A081A007B08E1
:1009F00080008531262D2100263584008501850D56
:100A00003A3084070030853D00082000FA001000CD
:100A1000FB007A08A0007B08A1006430A200A301BB
:100A200081313B21FA002108FB00FA0A0319FB0A75
:100A30002100263584008501850D3A308407003079
:100A4000853D20007A081A007B0880002100A60A54
:100A50002000031D37332100A601200064000C3064
:100A6000210026028531200003186F2D2100263534
:100A700084008501850D3A3084070030853D0008EB
:100A80002000FA001000FB007A08A0007B08A100FB
:100A9000A3010030813121218531031D6A2DA90177
:100AA0002100263584008501850D3A308407003009
:100AB000853D00082000FA001000FB007A08A40021
:100AC0007B08A5005030B000B101803158202C3097
:100AD000803151202100A60A2000031DBF332100D0
:100AE000220820008031012008000C1521000C1183
:100AF0000E302000B6000030B8000430B4000E30D4
:100B0000B7000030B9000130B5000530B300210056
:100B100022082000A000A1018031B0202100A50101
:100B200020006400063021002502853120000318D2
:100B3000BB2D0E30B6000030B8000230B4000E30CD
:100B4000B7000030B9000130B5000630B300803185
:100B50008620FA002108FB0021002508723E84004F
:100B600000308501853D20007A0880002100A50A1B
:100B70002000031DD6330C1121000C110F30200072
:100B80007305EC00ED016C08A0006D08A1000830B1
:100B900081311521EC002108ED007208EC070318E3
:100BA000ED0A7408EE00EF016E08A0006F08A100C6
:100BB000083081311521EE002108EF007308EE079F
:100BC0000318EF0A6E08A0006F08A10004308131FD
:100BD0001C21EE002108EF000F307605F000F10136
:100BE0007008A0007108A100083081311521F000C3
:100BF0002108F1007508F0070318F10A2100A60189
:100C000020006400033021002602863120000318F2
:100C1000292EA9012100263584008501850D6C301F
:100C200084070030853D00082000FA001000FB001A
:100C30007A08A4007B08A5005030B000B1018031D3
:100C400058202C30803151202100A60A2000031D9D
:100C5000D8330800F801F901210001309D00A501F9
:100C60002000640004302100250286312000031892
:100C7000572E21009D14200064008631210083102E
:100C80009D1C831420008318462EF63321001C0877
:100C9000A1001B08A00020082000F807210021085F
:100CA0002000F93D2100A50A2000031DDA332100B0
:100CB0009D0120007808A0007908A1000230813150
:100CC0001C21F8002108F9000800A9017808A400F7
:100CD0007908A5005030B000B101803158202C3087
:100CE000803151200800640021002308003C863137
:100CF0002000031D812E2100A40120000800863160
:100D0000842E2100A303200021002308FE3C87310C
:100D10002000031C952F21002308200086319526F2
:100D20002100A40020008731952F0B0007340E34DA
:100D300009341C341B341234153438343F343634FF
:100D40003134243423342A342D34703477347E34CF
:100D500079346C346B346234653448344F344634FF
:100D60004134543453345A345D34E034E734EE348F
:100D7000E934FC34FB34F234F534D834DF34D6347F
:100D8000D134C434C334CA34CD34903497349E340F
:100D900099348C348B3482348534A834AF34A634FF
:100DA000A134B434B334BA34BD34C734C034C934D4
:100DB000CE34DB34DC34D534D234FF34F834F1347F
:100DC000F634E334E434ED34EA34B734B034B934CF
:100DD000BE34AB34AC34A534A2348F34883481347F
:100DE0008634933494349D349A342734203429340F
:100DF0002E343B343C34353432341F3418341134FF
:100E00001634033404340D340A345734503459340E
:100E10005E344B344C34453442346F34683461347E
:100E20006634733474347D347A3489348E34873440
:100E30008034953492349B349C34B134B634BF340E
:100E4000B834AD34AA34A334A434F934FE34F734BE
:100E5000F034E534E234EB34EC34C134C634CF340E
:100E6000C834DD34DA34D334D43469346E3467347E
:100E70006034753472347B347C34513456345F348E
:100E800058344D344A344334443419341E341734FE
:100E90001034053402340B340C34213426342F340E
:100EA00028343D343A34333434344E3449344034C5
:100EB0004734523455345C345B347634713478348E
:100EC0007F346A346D34643463343E3439343034BE
:100ED0003734223425342C342B340634013408348E
:100EE0000F341A341D3414341334AE34A934A034FE
:100EF000A734B234B534BC34BB349634913498340E
:100F00009F348A348D3484348334DE34D934D034FD
:100F1000D734C234C534CC34CB34E634E134E8348D
:0C0F2000EF34FA34FD34F434F3340800EC
:020000040001F9
:02000E00BCFF35
:02001000FFDE11
:00000001FF
